:100000000C940A0388E798E2890F8FEF91E0890F3B
:1000100080E090E0890F85E093E0890F089488E7FD
:1000200098E2891F08948FEF91E0891F089480E07F
:1000300090E0891F089485E093E0891F88E798E2A3
:10004000CB968FEF91E0019680E090E0029685E0FC
:1000500093E0059688E798E2891B80E091E0891B90
:1000600081E091E0891B85E093E0891B88E784515A
:1000700080E0815081E0815085E08450089488E7D9
:1000800098E2890B089480E090E0890B089482E064
:1000900091E0890B089486E094E0890B089488E746
:1000A0008441089480E08040089482E08140089474
:1000B00086E0844088E794E1499780E090E00197EA
:1000C00082E091E0019786E094E0049788E794E16C
:1000D000892383E092E0892382E091E0892387E00D
:1000E00094E0892388E7847180E0867087E08470DB
:1000F00086E0807188E794E1892B83E092E0892B88
:1001000082E091E0892B87E09FEF892B88E784616B
:1001100080E0866087E0846086E0806188E794E123
:10012000892783E093E0892782E091E0892787E0AF
:100130009FEF892788E7809580E0809587E080950C
:100140008FEF809588E7819580E0819587E08195A4
:100150008FEF81958FEF839583958395839581E0CC
:100160008A958A958A958A9588E7882380E08823EE
:1001700080E888238FEF882388E788278AEF8827FD
:1001800080E88FEF80E08FEF88E798E2899F8FEF1C
:1001900091E0899F80E090E0899F85E093E0899FCE
:1001A00088E798E289028FEF91E0890280E090E091
:1001B000890285E093E089021867286212031F6FA5
:1001C0002160120310602060120315602360120387
:1001D00018E728E21A031FEF21E01A0310E020E0DD
:1001E0001A0315E023E01A0318E728E292031FEF31
:1001F00021E0920310E020E0920315E023E0920357
:1002000018E728E29A031FEF21E09A0310E020E0AC
:100210009A0315E023E09A0388E7880F8FEF880F91
:1002200080E0880F85E0880F88E786958FEF8695B8
:1002300080E0869585E0869588E7881F8FEF881F88
:1002400080E0881F85E0881F88E787958FEF879576
:1002500080E0879585E0879588E785958FEF859580
:1002600080E0859585E0859588E782958FEF82957A
:1002700080E0829585E0829588E780FB8FEF80FBA8
:1002800080E080FB85E080FB689488E780F96894D3
:100290008FEF80F9689480E080F9689485E080F9B8
:1002A00008942894189478944894389468945894AE
:1002B0008894A8949894F894C894B894E894D8949E
:1002C000089588E7582E83E2522C80E4582E88E760
:1002D00095E01C0183E295E01C0180E495E01C019F
:1002E000ABE7B1E086E08C93CFEDD1E085E3888386
:1002F000E4E6F1E089E98083ACE7B1E080E28D9348
:100300008FE18C93C0EED1E08DE389938AE18883FD
:10031000E5E6F1E088E4819382E68083AEE7B1E030
:1003200089E58C938CE58E93C2EED1E083E48883DB
:1003300087E58A93E4E6F1E087E4808382E68293AE
:10034000CFEDD1E081E08A87E4E6F1E082E08287C8
:10035000ABE7B1E08C91CFEDD1E08881E4E6F1E04C
:100360008081ACE7B1E08D918C91C0EED1E08991B4
:100370008881E8E6F1E081918081AEE7B1E08C917F
:100380008E91C2EED1E088818A91EAE6F1E0808127
:100390008291CFEDD1E08A85E4E6F1E08285E6E066
:1003A000F0E0C895EFEFF7E488E18491E0E0F8E44D
:1003B00088E0859183E1849181E08F9382E08F933F
:1003C00083E08F9384E08F9385E08F938F918F915B
:1003D0008F918F918F910000089586E096E08917A4
:1003E00019F000000000000086E095E0891719F080
:1003F000000000000000332733953031E8F330E18E
:10040000345018F400000000000033E0345018F4B9
:1004100000000000000004E140E055E0450F0A95AF
:10042000E9F710E101E001171CF0000000000000F6
:1004300011E000E101171CF000000000000050E195
:100440006AE056171CF40000000000005AE060E16A
:1004500056171CF40000000000008FEF91E0890F98
:100460001BF00000000000008FEF90E0890F1BF0F0
:100470000000000000008FEF90E0890F1BF00000EB
:10048000000000008FEF91E0890F1BF000000000DA
:10049000000089E19AE0891B87FD891B8AE099E1C8
:1004A000891B87FD891B8AE099E1891B87FF81955C
:1004B00089E19AE0891B87FF819586E0A5E0A395F5
:1004C000A813A19586E0A4E0A395A813A195A5E0A3
:1004D000B6E085E096E0A817B90719F4000000001F
:1004E0000000A1E1B1E389E29EE1A817B90719F480
:1004F00000000000000084E083FB1EF0000000000C
:10050000000083E083FB1EF000000000000083E099
:1005100083FB1EF400000000000084E083FB1EF457
:10052000000000000000A0E0A63518F00000000068
:100530000000A0E6A63518F00000000000006FEFF4
:1005400071E0670F18F40000000000006CE370E534
:10055000670F18F400000000000032E034501AF079
:1005600000000000000036E034501AF000000000E7
:10057000000058941DF0000000000000D8941DF009
:10058000000000000000D8941DF0000000000000F2
:1005900058941DF000000000000068941EF0000058
:1005A00000000000E8941EF0000000000000E89445
:1005B0001EF400000000000068941EF4000000001B
:1005C000000038941BF0000000000000B8941BF0FD
:1005D000000000000000B8941BF4000000000000C0
:1005E00038941BF400000000000078941FF0000015
:1005F00000000000F8941FF0000000000000F894D4
:100600001FF400000000000078941FF400000000B8
:10061000000008950E9402000E94ED010E94610105
:0206200008953B
:00000001FF
