:100000000C9434000C9446000C9446000C9446006A
:100010000C9446000C9446000C9446000C94460048
:100020000C9446000C9446000C9446000C94460038
:100030000C9446000C9446000C946A000C94460004
:100040000C9459000C9446000C9446000C94460005
:100050000C9446000C9446000C9446000C94460008
:100060000C9446000C94460011241FBECFEFD8E03C
:10007000DEBFCDBF21E0A0E0B1E001C01D92A33002
:10008000B207E1F70E947B000C9412010C9400006F
:1000900085B5887F85BD14BC15BC16BC17BC18BCC3
:1000A00087E085BB10926E00109202011092010150
:1000B00008951F920F920FB60F9211248F93809183
:1000C00002018F5F809302018F910F900FBE0F90FE
:1000D0001F9018951F920F920FB60F9211248F93B5
:1000E000809101018F5F809301018F910F900FBE6E
:1000F0000F901F9018958AB180668AB978941092F3
:1001000000010E94480080916E00816080936E0023
:1001100085B5826085BD80910201853010F40000B4
:10012000FACF81E0809300010E9448008FE787BDED
:1001300080E488BD84B5816A84BD80916E00816051
:1001400080936E0085B5826085BD80910201853007
:1001500010F40000FACF82E0809300010E94480072
:1001600086E987BD84B5826484BD80916E0082601B
:1001700080936E0085B5826085BD809101018530D8
:1001800010F40000FACF83E0809300010E94480041
:1001900088EC87BD84B5836884BD80916E008160E2
:1001A00080936E0085B5826085BD809102018530A7
:1001B00010F40000FACF85E0809300010E9448000F
:1001C00084EB87BD84B5816484BD80916E008160BD
:1001D00080936E0085B58A6085BD8091020185306F
:1001E00010F40000FACF87E0809300010E944800DD
:1001F00084E687BD84B5836484BD80916E00816090
:1002000080936E0085B58A6085BD8091020185303E
:1002100010F40000FACF0E9448008FEF8093000195
:080220000000FECFF894FFCFAF
:00000001FF
